:100000000C9441000C945E000C945E000C945E0015
:100010000C94470A0C9453090C941A0A0C94C009C6
:100020000C94ED090C9426090C9493090C94D308B4
:100030000C945E000C94940E0C945E000C94D90EFB
:100040000C940C130C945E000C945E000C945E00F7
:100050000C945E0000000100080040000001000454
:1000600000000100080020004000800000010004A2
:1000700030313233343536373839414243444546DE
:10008000000011241FBECFE5D8E0DEBFCDBF12E0D7
:10009000A0E6B0E0E4ECF1E402C005900D92AC3EC5
:1000A000B107D9F713E0ACEEB2E001C01D92AB3F4F
:1000B000B107E1F70E9404060C94E0200C9476004E
:1000C00081E08093D20382E08093D30380E8809321
:1000D000D40380E48093D9030895FC0183B3908115
:1000E000892311F080E008958FEF08951F920F92F9
:1000F0000FB60F92112400000F900FBE0F901F90AB
:10010000189508958091D5039091D603A091D703B7
:10011000B091D8030196A11DB11D8093D503909392
:10012000D603A093D703B093D8030895EF92FF921C
:100130000F931F937B018C0120E030E040E050E002
:100140000E947D1C181624F017FB109517F91095C6
:10015000B701C8011F910F91FF90EF9008958F9202
:100160009F92AF92BF92CF92DF92EF92FF920F9346
:100170001F93CF93DF936C01EB014A01590160910A
:100180007E0070917F00809180009091810020E03E
:1001900030E040E050E00E944D1C882389F10E942D
:1001A000E40FF6018581882369F0688179818A816D
:1001B0009B8123E333E34BE651E40E94711B0E94D1
:1001C000421206C0688179818A819B810E94A212B5
:1001D00088819981AA81BB818093F0029093F1027A
:1001E000A093F202B093F30280E090E0A0E0B0E0D0
:1001F00080937E0090937F00A0938000B093810055
:10020000F6018181833009F41AC1843038F48130D9
:1002100009F46AC0823008F0C3C00AC0853009F40E
:10022000ACC1853008F45AC1863009F05DC2F6C110
:100230006091F0027091F1028091F2029091F302CC
:10024000288139814A815B810E94191A7B018C01C6
:1002500020E030E040E050E00E947D1C181624F0C1
:1002600017FB109517F91095C801B70120E030E091
:1002700040E05FE30E947D1C1816C4F0F601618126
:1002800070E0882777FD8095982F0E940D1D9B01B7
:10029000AC016091EC027091ED028091EE029091C0
:1002A000EF020E944D1C882309F41EC20E94E40F35
:1002B000F6018581882369F0688179818A819B8133
:1002C00023E333E34BE651E40E94711B0E94421288
:1002D00006C0688179818A819B810E94A2128881EF
:1002E0009981AA81BB81E9C16091F0027091F1020C
:1002F0008091F2029091F302F401208131814281D8
:1003000053810E94191A7B018C0120E030E040E00B
:1003100050E00E947D1C181624F017FB109517F969
:100320001095C801B70120E030E040EA50E40E9497
:100330007D1C1816C4F0F601618170E0882777FDF6
:100340008095982F0E940D1D9B01AC016091EC02DD
:100350007091ED028091EE029091EF020E944D1C8F
:10036000882309F4C1C10E94E40FF6018581882326
:1003700071F0F401608171818281938123E333E321
:100380004BE651E40E94711B0E94221207C0F40147
:1003900060817181828193810E948212F4014AC03E
:1003A0006091F0027091F1028091F2029091F3025B
:1003B000F50120813181428153810E94191A7B010C
:1003C0008C0120E030E040E050E00E947D1C1816D7
:1003D00024F017FB109517F91095C801B7012DEC03
:1003E0003CEC4CEC5DE30E947D1C1816C4F0F60159
:1003F000618170E0882777FD8095982F0E940D1D00
:100400009B01AC016091EC027091ED028091EE02D3
:100410009091EF020E944D1C882309F465C10E944F
:10042000E40FF501408151816281738180E00E9477
:10043000D211F50180819181A281B3813EC1609189
:10044000F0027091F1028091F2029091F302F501B5
:1004500024813581468157810E94191A7B018C01C4
:1004600020E030E040E050E00E947D1C181624F0AF
:1004700017FB109517F91095C801B7012DEC3CEC4E
:100480004CEC5DE30E947D1C1816C4F0F6016181FE
:1004900070E0882777FD8095982F0E940D1D9B01A5
:1004A000AC016091EC027091ED028091EE029091AE
:1004B000EF020E944D1C882309F416C10E94E40F2C
:1004C000F501448155816681778181E00E94D211D6
:1004D000F50184819581A681B781EFC06091F0021A
:1004E0007091F1028091F2029091F302F501208562
:1004F0003185428553850E94191A7B018C0120E0C9
:1005000030E040E050E00E947D1C181624F017FBFC
:10051000109517F91095C801B7012DEC3CEC4CEC87
:100520005DE30E947D1C1816C4F0F601618170E045
:10053000882777FD8095982F0E940D1D9B01AC01A7
:100540006091EC027091ED028091EE029091EF02C9
:100550000E944D1C882309F4C7C00E94E40FF501D6
:10056000408551856285738582E00E94D211F50134
:1005700080859185A285B385A0C06091F0027091BD
:10058000F1028091F2029091F302288539854A8523
:100590005B850E94191A7B018C0120E030E040E06D
:1005A00050E00E947D1C181624F017FB109517F9D7
:1005B0001095C801B7012DEC3CEC4CEC5DE30E94BA
:1005C0007D1C1816C4F0F601618170E0882777FD64
:1005D0008095982F0E940D1D9B01AC016091EC024B
:1005E0007091ED028091EE029091EF020E944D1CFD
:1005F000882309F479C00E94E40F80E690E00E940D
:10060000800F0E949A0F688579858A859B850E9454
:100610007A0F88859985AA85BB854FC06091F002C5
:100620007091F1028091F2029091F3022885398550
:100630004A855B850E94191A7B018C0120E030E01D
:1006400040E050E00E947D1C181624F017FB109526
:1006500017F91095C801B7012DEC3CEC4CEC5DE3AB
:100660000E947D1C1816BCF0F601618170E088279D
:1006700077FD8095982F0E940D1D9B01AC01609124
:10068000EC027091ED028091EE029091EF020E94D7
:100690004D1C882349F10E94E40F8DE690E00E94F2
:1006A000800F0E949A0F6C897D898E899F890E9494
:1006B0007A0F8C899D89AE89BF898093F0029093CF
:1006C000F102A093F202B093F302F601618170E0AF
:1006D00080E090E00E94BF1D6093EC027093ED02F9
:1006E0008093EE029093EF02DF91CF911F910F91D3
:1006F000FF90EF90DF90CF90BF90AF909F908F9042
:1007000008958F929F92AF92BF92CF92DF92EF9215
:10071000FF920F931F93DF93CF93CDB7DEB7289748
:100720000FB6F894DEBF0FBECDBF80EF90E1A0E220
:10073000BFE089839A83AB83BC83CE01019660E0DE
:1007400070E044E050E00E94C92080E090E0A0E228
:10075000B1E48D839E83AF83B8878E010B5F1F4FFB
:10076000C80164E070E044E050E00E94C92080E0ED
:1007700090E0A0E2B0E48D839E83AF83B887C80188
:1007800068E070E044E050E00E94C9200F2EFFE6D0
:100790008F2EF2E19F2EF3E8AF2EFAE3BF2EF02D5D
:1007A0008D829E82AF82B886C8016CE070E044E022
:1007B00050E00E94C9200F2EF7E1CF2EF7EBDF2E7D
:1007C000F1EDEF2EF8E3FF2EF02DCD82DE82EF82E9
:1007D000F886C80160E170E044E050E00E94C92062
:1007E00080E090E0A8ECB2E48D839E83AF83B8876D
:1007F000C80164E170E044E050E00E94C92080E05C
:1008000090E0A0E8BFE38D839E83AF83B887C801E3
:1008100068E170E044E050E00E94C9208DEC9CEC5F
:10082000ACECBDE38D839E83AF83B887C8016CE1D8
:1008300070E044E050E00E94C9208D829E82AF8229
:10084000B886C80160E270E044E050E00E94C92030
:10085000CD82DE82EF82F886C80164E270E044E077
:1008600050E00E94C92028960FB6F894DEBF0FBE54
:10087000CDBFCF91DF911F910F91FF90EF90DF904F
:10088000CF90BF90AF909F908F9008950F931F933C
:10089000DF93CF9300D000D0CDB7DEB78C010E949C
:1008A000610F0E94C2120E9460078D9A8C9A86EB9B
:1008B00095E30E948B088CE79EE00E94A00B81E0EC
:1008C0008093D20382E08093D30380E88093D403A3
:1008D00080E48093D9030E94B10880E090E00E94F8
:1008E000CD080E94B80880E090E00E94D00880E027
:1008F00062E870E00E94AB0784B314BA87B38FEF4D
:1009000087BB000018BA88B3806C88BBF8011082DE
:10091000118287E08283138284E0848315821682A9
:10092000CE01019660E070E044E050E00E94B92002
:1009300089819A81AB81BC81805F9041A042BF4098
:1009400011F00E9481030F900F900F900F90CF91A4
:10095000DF911F910F910895CF92DF92EF92FF9256
:100960000F931F93CF93DF93EC017B016A0180917A
:10097000F9028823A9F08091D5039091D603A09124
:10098000D703B091D8038093F5029093F602A09319
:10099000F702B093F8021092F90281E08093F4021A
:1009A0008091D5039091D603A091D703B091D8033D
:1009B0002091F5023091F6024091F7025091F80231
:1009C000821B930BA40BB50B805D9740A040B040F9
:1009D00028F48091F402882309F00DC11092F402EA
:1009E00083B39091D403892309F0F3C081E080930D
:1009F000F902888319821B82FEC081E08093F9028C
:100A00008E81882349F18B81823049F46F8178850A
:100A100089859A8520E030E040E050E41AC08B815F
:100A2000813079F46F81788589859A8520E030E07E
:100A300040E251E40E94771A6F83788789879A870A
:100A4000DAC06F81788589859A852DEC3CEC4CEC79
:100A50005DE30E944A1AF0CF8881882361F02B81E0
:100A60008C8130E090E00197281739070CF0C3C063
:100A70008B818F5F40C029818A8130E090E00197AF
:100A8000281739070CF0B7C089818F5F3CC081E01F
:100A90008093F9028E81882329F18B81823049F479
:100AA0006F81788589859A8520E030E040E050E4C8
:100AB00016C08B81813059F46F81788589859A853C
:100AC00020E030E040E251E40E94711BB5CF6F811D
:100AD000788589859A852DEC3CEC4CEC5DE30E9491
:100AE000191AAACF8881882341F08B81882309F4C1
:100AF00082C08B8181508B837EC08981882309F4D9
:100B00007AC089818150898376C001E00093F9021F
:100B10008881882309F46FC08E81882361F11E8249
:100B20008B81813061F0813028F0823069F0833030
:100B3000C1F40FC0CE01079664E070E00EC0CE0194
:100B400007966CE070E009C0CE01079664E170E0A2
:100B500004C0CE01079668E170E044E050E00E94D6
:100B6000C920CE010E944604C7010E941715C60184
:100B70000E942C1840C01B81113061F0113028F008
:100B8000123091F01330B9F519C0CE01079664E028
:100B900070E00EC0CE0107966CE070E044E050E0DB
:100BA0000E94B9201E8327C0CE01079664E170E041
:100BB00044E050E00E94B9200E831DC0CE0107968C
:100BC00068E170E044E050E00E94B92081E08E834B
:100BD00012C083B39091D203892309F40ECF83B35B
:100BE0009091D303892309F452CF83B39091D90311
:100BF000892309F48ACFDF91CF911F910F91FF9044
:100C0000EF90DF90CF9008959F92AF92BF92CF92D6
:100C1000DF92EF92FF920F931F93DF93CF93CDB7A5
:100C2000DEB7C755D0400FB6F894DEBF0FBECDBFBC
:100C30008E010F5F1F4FC8010E94460498E1E92E04
:100C4000F12CEC0EFD1EC7010E94171584E3C82E7F
:100C5000D12CCC0EDD1EC6010E942C180E946C10F7
:100C6000AA24AA94BE2CEF2CFC2CCD2C902ED12E95
:100C70008E01045F1F4F892D9D2D6B2D7E2D4F2DD5
:100C80005C2D0E94AC048F81882349F08C814885BB
:100C900059856A857B850E94EB0FAA24AA948981D5
:100CA000882329F5C8010E947C158B2D9E2D0E945A
:100CB000A9148F2D9C2D0E94A617888D998DAA8D21
:100CC000BB8D88AF99AFAAAFBBAF8B2D9E2D0E9475
:100CD0001C138F2D9C2D0E941916892D9D2D6B2D77
:100CE0007E2D4F2D5C2D98010E94AF00C4CF8C81CA
:100CF000A81609F28F81882309F0BDCF8C810E944C
:100D00003910AC80B8CFFC018FB7F8947183608341
:100D10005383428317821682158214828FBF0895EF
:100D2000DC014FB7F89414968D919C911597892BFF
:100D300011F4E0E025C016968D919C911797ED91E6
:100D4000FC911197E80FF91FE081019617969C938B
:100D50008E93169712962D913C91139782179307B5
:100D600030F0821B930B17969C938E9316971496D4
:100D70008D919C911597019715969C938E9314973E
:100D80004FBF8E2F0895FC014FB7F8948481958151
:100D900068177907B0F486819781860F971F97832C
:100DA0008683228133818217930720F0821B930B65
:100DB0009783868384819581861B970B9583848393
:100DC00002C0158214824FBF0895FC01CB012FB7DA
:100DD000F8942FBF2681378162817381820F931F20
:100DE0000E944C200190F081E02DE80FF91F8081D6
:100DF00008951F93CF93DF93EC01162F4FB7F8940C
:100E00002C813D816A817B812617370798F48E817A
:100E10009F81820F931F0E944C20E881F981E80F87
:100E2000F91F10838C819D8101969D838C834FBF18
:100E30008FEF02C04FBF80E0DF91CF911F910895E7
:100E4000FC018FB7F8948FBF228133818481958113
:100E5000281B390BC9010895FC018FB7F89415823E
:100E600014828FBF0895089583B7887F826083BFFF
:100E700012BE89B7816089BF1092DA031092DB033A
:100E80001092DC031092DD0308958EB5887F836095
:100E90008EBD1DBC1CBC89B7846089BF089585B513
:100EA000887F846085BD14BC89B7806489BF109237
:100EB000E2031092E3031092E4031092E503089515
:100EC00080E090E0FC01EE0FFF1FE650FD4F118225
:100ED0001082019688309105A9F70E9434070E947C
:100EE00045070E944F077894089593B7987F982BF1
:100EF00093BF08959EB5987F982B9EBD089595B594
:100F0000987F982B95BD089583B7E82FF0E0E770A0
:100F1000F070EE0FFF1FEC5AFF4F25913491C9017D
:100F200008958EB5E82FF0E0E770F070EE0FFF1F28
:100F3000EC5AFF4F25913491C901089585B5E82FEA
:100F4000F0E0E770F070EE0FFF1FE05AFF4F2591C1
:100F50003491C9010895883040F4E82FF0E0EE0F95
:100F6000FF1FE650FD4F718360830895883040F481
:100F7000E82FF0E0EE0FFF1FE650FD4F11821082C8
:100F80000895EF92FF920F931F93CF93DF93EC019D
:100F900012B71092DE031092DF031092E00310925A
:100FA000E10383B7E82FF0E0E770F070EE0FFF1F6A
:100FB000EC5AFF4F2591349140E050E060E072E13F
:100FC0008AE790E00E946020B901CA01693B2DE8E0
:100FD000720726E0820720E09207A0F437E2C131D1
:100FE000D30780F49E0140E050E00E942D2028EEBF
:100FF00033E040E050E00E946020C901DA01BC010A
:10100000CD0121C028EE33E040E050E00E94602096
:10101000CA01B9019E0140E050E00E942D2013C09A
:101020008091DE039091DF03A091E003B091E10392
:1010300085B78F7885BF85B7806885BF889585B768
:101040008F7785BF08C09B01AC01210F311D411D69
:10105000511D79018A012091DE033091DF03409117
:10106000E0035091E10382B790E0A0E0B0E0542F9C
:10107000432F322F2227822B932BA42BB52B8E1597
:101080009F05A007B10760F2DF91CF911F910F91EB
:10109000FF90EF9008951092DA031092DB03109204
:1010A000DC031092DD0308952091DA033091DB0315
:1010B0004091DC035091DD03B901CA0108951092FB
:1010C000E2031092E3031092E4031092E503089503
:1010D0002091E2033091E3034091E4035091E50352
:1010E000B901CA010895893031F48FB582608FBD8E
:1010F0008FB58E7F0AC08A3019F48FB5826002C026
:101100008FB58D7F8FBD8FB581608FBD1BBC1ABC25
:1011100019BC18BC08952FB52E7F2FBD2FB52260A6
:101120002FBD2EB528602EBD2EB520612EBD97BDDA
:1011300086BD1BBC1ABC19BC18BC08958FB58D7F29
:101140008FBD8FB58E7F8FBD8FB58F778FBD8FB5DC
:101150008F7B8FBD8FB58F7D8FBD8FB58F7E8FBD00
:1011600008958FB580688FBD8FB58F7B8FBD089533
:101170008FB580628FBD8FB58F7E8FBD08958FB57F
:101180008F778FBD8FB58F7B8FBD08958FB58F7D86
:101190008FBD8FB58F7E8FBD08959BBD8ABD08958D
:1011A00099BD88BD08951F920F920FB60F9211241A
:1011B0002F933F934F935F936F937F938F939F935F
:1011C000AF93BF93EF93FF938091DA039091DB038A
:1011D000A091DC03B091DD030196A11DB11D8093A8
:1011E000DA039093DB03A093DC03B093DD038091DB
:1011F000DE039091DF03A091E003B091E10301963B
:10120000A11DB11D8093DE039093DF03A093E00343
:10121000B093E1038091FA029091FB02892B29F0AF
:10122000E091FA02F091FB020995FF91EF91BF91D5
:10123000AF919F918F917F916F915F914F913F916E
:101240002F910F900FBE0F901F9018951F920F9225
:101250000FB60F9211242F933F934F935F936F9389
:101260007F938F939F93AF93BF93EF93FF9380915F
:10127000FC029091FD02892B29F0E091FC02F09193
:10128000FD020995FF91EF91BF91AF919F918F91D1
:101290007F916F915F914F913F912F910F900FBE72
:1012A0000F901F9018951F920F920FB60F92112456
:1012B0002F933F934F935F936F937F938F939F935E
:1012C000AF93BF93EF93FF938091E2039091E30379
:1012D000A091E403B091E5030196A11DB11D809397
:1012E000E2039093E303A093E403B093E5038091BA
:1012F000040390910503892B29F0E0910403F091F8
:1013000005030995FF91EF91BF91AF919F918F9147
:101310007F916F915F914F913F912F910F900FBEF1
:101320000F901F9018951F920F920FB60F921124D5
:101330002F933F934F935F936F937F938F939F93DD
:10134000AF93BF93EF93FF938091080390910903AC
:10135000892B29F0E0910803F09109030995FF9189
:10136000EF91BF91AF919F918F917F916F915F911D
:101370004F913F912F910F900FBE0F901F90189596
:101380001F920F920FB60F9211242F933F934F93FA
:101390005F936F937F938F939F93AF93BF93EF93DD
:1013A000FF938091FE029091FF02892B29F0E0913A
:1013B000FE02F091FF020995FF91EF91BF91AF916D
:1013C0009F918F917F916F915F914F913F912F915D
:1013D0000F900FBE0F901F9018951F920F920FB68F
:1013E0000F9211242F933F934F935F936F937F93AB
:1013F0008F939F93AF93BF93EF93FF9380910003DD
:1014000090910103892B29F0E0910003F0910103F1
:101410000995FF91EF91BF91AF919F918F917F912E
:101420006F915F914F913F912F910F900FBE0F9051
:101430001F9018951F920F920FB60F9211242F93A1
:101440003F934F935F936F937F938F939F93AF934C
:10145000BF93EF93FF938091020390910303892B35
:1014600029F0E0910203F09103030995FF91EF91B8
:10147000BF91AF919F918F917F916F915F914F91AC
:101480003F912F910F900FBE0F901F9018951F92B4
:101490000F920FB60F9211242F933F934F935F93A8
:1014A0006F937F938F939F93AF93BF93EF93FF932C
:1014B0008091060390910703892B29F0E0910603A0
:1014C000F09107030995FF91EF91BF91AF919F9123
:1014D0008F917F916F915F914F913F912F910F90DD
:1014E0000FBE0F901F90189582E193E00895982FFA
:1014F00080910A038823E1F78FEF80930A0390938A
:101500000B0389E080930C03959A2CB53DB580912F
:101510000D0390910E03820F931F9BBD8ABD89B767
:10152000806189BF089580910C03882311F1809117
:101530000C03823068F080910B0380FD02C0959A05
:1015400001C0959880910B03869580930B0301C091
:1015500095988AB59BB520910D0330910E03280F05
:10156000391F3BBD2ABD80910C03815080930C0331
:10157000089510920A03089580910F03882319F5A6
:1015800089B78F7D89BF4CB55DB520910D03309132
:101590000E0380910D0390910E03240F351F969535
:1015A0008795280F391F39BD28BD88B7886088BF47
:1015B00089B7886089BF8FEF80930F031092110362
:1015C0001092100308958091100386958093100364
:1015D000869905C0809110038068809310038091E4
:1015E00011038F5F8093110328B539B580910D03E6
:1015F00090910E03820F931F99BD88BD80911103B6
:10160000883088F06091100382E193E00E94F9062F
:1016100089B7877F89BF88B7806288BF89B78062B2
:1016200089BF10920F030895CF93DF93EC0180914F
:10163000140390911503892B69F080911603909102
:101640001703892B39F082E193E00E94900688838A
:101650008FEF01C080E0DF91CF910895EF92FF926C
:101660000F931F937B018C0181E00E947A07C801D0
:10167000B701969587957795679560507E4E85481A
:101680009F4FA80197010E94602030930E03209382
:101690000D031F910F91FF90EF90089589B78F7EF2
:1016A00089BF89B7877F89BF89B78F7D89BF82E06E
:1016B0000E94B60783E00E94B60784E00E94B60746
:1016C000089582E193E06AE173E040E250E00E9415
:1016D000830608950F931F9382E193E06AE173E01C
:1016E00040E250E00E9483068D9A8E98969860E8BA
:1016F00075E280E090E00E942E0B10920A0389B7F9
:101700008F7E89BF82E063E97AE00E94AB07109286
:101710000F0389B7877F89BF0CEB1AE083E0B8011C
:101720000E94AB0784E0B8010E94AB078EB58064CD
:101730008EBD89B7806289BF78941F910F910895FB
:1017400090933B0380933A0308951F93182F8A3098
:1017500031F4E0913A03F0913B038DE00995E0917B
:101760003A03F0913B03812F09951F910895CF9380
:10177000DF93EC01009721F406C021960E94A50B8F
:1017800088818823D1F7DF91CF910895EF92FF925E
:101790000F931F93CF93DF938C017A010097E9F0A9
:1017A00020E030E02617370738F4F80181918F01E7
:1017B0002F5F3F4F8823B1F7C0E0D0E00BC0F801A6
:1017C0008081882319F00F5F1F4F01C080E20E94C3
:1017D000A50B2196CE15DF0590F3DF91CF911F91D8
:1017E0000F91FF90EF900895CF93DF93EC01009756
:1017F00019F407C00E94A50BFE012196849188234D
:10180000C9F7DF91CF9108958AE00E94A50B089552
:10181000E82FF0E0EF70F070E059FF4FE4918E2F69
:101820000E94A50B08951F93182F82958F700E9418
:10183000080C812F0E94080C1F9108951F93182FE8
:10184000892F0E94130C812F0E94130C1F91089561
:10185000EF92FF920F931F937B018C01C801AA277F
:10186000BB270E941E0CC7010E941E0C1F910F91E6
:10187000FF90EF9008952F923F924F925F926F9258
:101880007F928F929F92AF92BF92CF92DF92EF9210
:10189000FF920F931F93DF93CF93CDB7DEB7A3973C
:1018A0000FB6F894DEBF0FBECDBF6AA3242E2BA3C4
:1018B00037014801442351F017FF08C0EE24FF24EC
:1018C0008701E618F7080809190902C084017301A5
:1018D0002AA1215090E0211091E0291B29A318A2F0
:1018E000A82EBB24CC24DD24C801B701A601950194
:1018F0000E946020FB01EF70F070E059FF4F64918F
:101900006F8FC801B701A60195010E946020C9012F
:10191000DA017C018D019EE1492E512C4C0E5D1E99
:1019200039A025C0E114F10401051105C9F0C80171
:10193000B701A60195010E946020FB01EF70F070D5
:10194000E059FF4F6491F2016083C801B701A6011D
:1019500095010E946020C901DA017C018D0103C05C
:101960002BA1F20120833A940894410851083320B6
:10197000C9F6CE014F968C01E9A10E1B1109222058
:10198000F1F097FE05C08DE2F80182938F0117C038
:10199000C8010197611471048104910419F08C014C
:1019A0008BE202C08C0180E2F801808308C0F8015C
:1019B00081918F010E94A50BFAA1F150FAA32AA1EF
:1019C0002223A9F7A3960FB6F894DEBF0FBECDBFB2
:1019D000CF91DF911F910F91FF90EF90DF90CF900B
:1019E000BF90AF909F908F907F906F905F904F903F
:1019F0003F902F9008954F925F926F927F928F92B7
:101A00009F92AF92BF92CF92DF92EF92FF920F938D
:101A10001F93CF93DF93482E5A016B01CB01BA017C
:101A200020E030E040E050E00E947D1C18161CF4DD
:101A30003501460106C03501460197FA909497F8A2
:101A4000909455240F2EF0E0EF2EF0E0FF2EF0E8FA
:101A50000F2FFFE31F2FF02DC401B301A801970141
:101A60000E94711B20E030E040E251E40E94DD1C46
:101A700087FD0EC0C801B70120E030E040E251E42C
:101A80000E94771A7B018C0153948FE0581621F73E
:101A9000C601B50120E030E040E050E00E94DD1CCE
:101AA00087FF03C08DE20E94A50BDD24AA2456C047
:101AB000C401B301A80197010E94711B0E94A118E3
:101AC000B62ED62ACD2DD0E0CC24DD24C801B70116
:101AD00020E030E040E85FE30E941D1C882319F4F9
:101AE00021E0C22ED12CCC29DD29CD2B39F08B2D34
:101AF000805D0E94A50BDD24DA9404C080E20E9480
:101B0000A50BDD24C801B70120E030E040E85FE329
:101B10000E941D1C882319F48EE20E94A50B6B2DD8
:101B200070E0882777FD8095982F0E940D1DA801F1
:101B300097010E94771A9B01AC01C401B3010E9476
:101B4000191A3B014C01C801B70120E030E040E226
:101B500051E40E94711B7B018C01A394A41408F42E
:101B6000A7CFDF91CF911F910F91FF90EF90DF9062
:101B7000CF90BF90AF909F908F907F906F905F902D
:101B80004F9008957F928F929F92AF92BF92CF9283
:101B9000DF92EF92FF920F931F93DF93CF93CDB716
:101BA000DEB77888C988DA8863E1E62EF12CEC0E7E
:101BB000FD1E14C0882381F480E090E0CF91DF9176
:101BC0001F910F91FF90EF90DF90CF90BF90AF905B
:101BD0009F908F907F9008950E94A50B96012F5F94
:101BE0003F4F772021F0F6016901849103C0F6018F
:101BF000808169018532F1F62F5F3F4F772021F018
:101C0000F6016901849103C0F6018081690184367F
:101C100029F0883781F08336F9F606C000E117E233
:101C20005AE0A52EB12C0CC0F701808122E030E0F3
:101C3000E20EF31ED1CF00E010E140E1A42EB12C62
:101C400032E0832E912C8E0C9F1CF701E080F180F6
:101C50008436B1F4F7FE11C0F094E194F108F394E6
:101C60008DE20E94A50B09C0C8016AE070E00E94E5
:101C70004C208B016230710518F0E016F106A0F3DC
:101C8000C701B8010E944C20862F0E94080CC70192
:101C9000B8010E944C207C01C801B5010E944C2073
:101CA0008B016115710561F7740198CF9093BD03A5
:101CB0008093BC0308959B01AC01605C7D4B804F19
:101CC0009F4FF3E0660F771F881F991FFA95D1F792
:101CD000E4E0220F331F441F551FEA95D1F70E94FD
:101CE00060202150304029B930BD089587EE93E03F
:101CF000089580EF93E00895982F8091E60388235C
:101D0000E1F39CB91092E60308951092EC0310924F
:101D1000EB0308958091EB039091EC03892B11F074
:101D200080E008958FEF08951F920F920FB60F92E3
:101D300011242F933F934F935F936F937F938F93D0
:101D40009F93AF93BF93EF93FF936CB18091BC03CC
:101D50009091BD03892B39F0E091BC03F091BD0354
:101D6000862F09950FC087EE93E00E94F90688231D
:101D700049F48091F8039091F90301969093F90347
:101D80008093F803FF91EF91BF91AF919F918F9155
:101D90007F916F915F914F913F912F910F900FBE67
:101DA0000F901F901895682F80EF93E00E94F9061E
:101DB00008951F920F920FB60F9211242F933F9305
:101DC0004F935F936F937F938F939F93AF93BF9343
:101DD000EF93FF938091EF03882371F08091F403D8
:101DE0009091F503892B31F080EF93E00E949006EB
:101DF0008CB905C01092EF038FEF8093E603FF913B
:101E0000EF91BF91AF919F918F917F916F915F9172
:101E10004F913F912F910F900FBE0F901F901895EB
:101E20008FEF8093EF0380EF93E00E949006982F4E
:101E30008091E6038823E1F39CB91092E6030895AC
:101E4000CF93DF93EC018091E9039091EA03892B12
:101E500069F08091EB039091EC03892B39F087EEC8
:101E600093E00E94900688838FEF01C080E0DF91AD
:101E7000CF910895DF93CF930F92CDB7DEB7CE0108
:101E800001960E94200F882319F42FEF3FEF03C023
:101E90008981282F30E0C9010F90CF91DF910895FB
:101EA00087EE93E06CE373E040E450E00E94830629
:101EB00080EF93E06CE773E040E450E00E9483061B
:101EC00008950E94500F1092BD031092BC0388ED3C
:101ED0008AB960E875E280E090E00E945B0E8FEFC7
:101EE0008093E6031092EF031092F9031092F80327
:101EF00078940895AB01BC0184E00E94FB0C089526
:101F0000CF93DF93EC0103C00E947C0E2196888161
:101F10008823D1F7DF91CF9108951F93182F8EEF6B
:101F20000E947C0E110F110F812F80580E947C0E91
:101F30001F91089580E10E948D0F08958EEF0E94F9
:101F40007C0E8CE00E947C0E08958EEF0E947C0E29
:101F50008DE00E947C0E08958EEF0E947C0E8CE036
:101F60000E947C0E08958EEF0E947C0E8EE00E94EF
:101F70007C0E08958EEF0E947C0E88E00E947C0EFD
:101F800008958EEF0E947C0E8CE00E947C0E0895D6
:101F90008EEF0E947C0E88E10E947C0E08958EEFE9
:101FA0000E947C0E8CE10E947C0E08958EEF0E94B0
:101FB0007C0E80E10E947C0E08958EEF0E947C0EC4
:101FC00084E10E947C0E08958EEF0E947C0E81E0D9
:101FD0000E947C0E0895DF92EF92FF920F931F9361
:101FE000D82E7A018B01CB01BA012091BE0330912A
:101FF000BF034091C0035091C1030E941D1C882360
:1020000091F10E94E40F81E0D81661F0D81638F003
:1020100082E0D81651F083E0D816E9F409C082E8CE
:1020200090E008C08BE990E005C087EA90E002C02C
:1020300089EB90E00E94800F0E949A0F81E990E066
:102040000E94800F84E0B801A7010E94FB0C85E983
:1020500090E00E94800FE092BE03F092BF030093D5
:10206000C0031093C1031F910F91FF90EF90DF9079
:1020700008951F93182F0E94E40F1230A9F0133017
:1020800028F4112341F0113029F520C01330A9F0B4
:10209000143001F51BC08BEC90E00E94800F0E9471
:1020A0009A0F89ED90E014C085EF90E00E94800FB8
:1020B0000E949A0F85E091E00BC080E191E00E94C0
:1020C000800F0E949A0F8DE191E002C084EE90E0B3
:1020D0000E94800F1F9108950E94E40F0E94A50F97
:1020E00080E197E228EC30E0F9013197F1F70197B0
:1020F000D9F787E291E00E94800F88EE93E028EC08
:1021000030E0F9013197F1F70197D9F787E291E0D3
:102110000E94800F88EE93E028EC30E0F9013197BF
:10212000F1F70197D9F787E291E00E94800F88EEDE
:1021300093E028EC30E0F9013197F1F70197D9F7F6
:1021400087E291E00E94800F88EE93E028EC30E077
:10215000F9013197F1F70197D9F789E291E00E94EF
:10216000800F88EE93E028EC30E0F9013197F1F729
:102170000197D9F78BE291E00E94800F88EE93E0FF
:1021800028EC30E0F9013197F1F70197D9F78DE2AA
:1021900091E00E94800F88EE93E028EC30E0F90196
:1021A0003197F1F70197D9F78DE291E00E94800F06
:1021B00088EE93E028EC30E0F9013197F1F70197D0
:1021C000D9F78FE291E00E94800F88EE93E028EC2F
:1021D00030E0F9013197F1F70197D9F781E391E008
:1021E0000E94800F80E197E228EC30E0F9013197FE
:1021F000F1F70197D9F70E949A0F80E197E228EC56
:1022000030E0F9013197F1F70197D9F787E291E0D2
:102210000E94800F88EE93E028EC30E0F9013197BE
:10222000F1F70197D9F787E291E00E94800F88EEDD
:1022300093E028EC30E0F9013197F1F70197D9F7F5
:1022400083E391E00E94800F88EE93E028EC30E079
:10225000F9013197F1F70197D9F785E391E00E94F1
:10226000800F88EE93E028EC30E0F9013197F1F728
:102270000197D9F787E391E00E94800F88EE93E001
:1022800028EC30E0F9013197F1F70197D9F789E3AC
:1022900091E00E94800F88EE93E028EC30E0F90195
:1022A0003197F1F70197D9F78BE391E00E94800F06
:1022B00088EE93E028EC30E0F9013197F1F70197CF
:1022C000D9F787E291E00E94800F88EE93E028EC36
:1022D00030E0F9013197F1F70197D9F78DE391E0FB
:1022E0000E94800F88EE93E028EC30E0F9013197EE
:1022F000F1F70197D9F78FE391E00E94800F88EE04
:1023000093E028EC30E0F9013197F1F70197D9F724
:1023100081E491E00E94800F88EE93E028EC30E0A9
:10232000F9013197F1F70197D9F783E491E00E9421
:10233000800F80E29EE428EC30E0F9013197F1F75C
:102340000197D9F70E949E0F0E94E40F85E491E067
:102350000E94800F88E99AE328EC30E0F901319778
:10236000F1F70197D9F70E94E40F83E591E00E940D
:10237000800F88E99AE328EC30E0F9013197F1F712
:102380000197D9F70E94E40F83E691E00E94800F45
:1023900088E99AE328EC30E0F9013197F1F70197E9
:1023A000D9F70895CF92DF92EF92FF921F93182FE3
:1023B0006A017B010E94E40F113041F0113018F0E6
:1023C000123059F406C082E791E005C082E891E03E
:1023D00002C082E991E00E94800F0E949A0F81E979
:1023E00090E00E94800F84E0B701A6010E94FB0CE0
:1023F0008EE991E00E94800F1F91FF90EF90DF9097
:10240000CF900895EF92FF920F931F937B018C0161
:102410000E94E40F83EA91E00E94800F0E949A0FCD
:1024200081E990E00E94800F84E0B801A7010E943A
:10243000FB0C82EB91E00E94800F1F910F91FF90A7
:10244000EF900895EF92FF920F931F937B018C0101
:102450000E94E40F88EB91E00E94800F0E949A0F87
:1024600081E990E00E94800F84E0B801A7010E94FA
:10247000FB0C88EC91E00E94800F1F910F91FF9060
:10248000EF900895EF92FF920F931F937B018C01C1
:102490000E94E40F8DEC91E00E94800F0E949A0F41
:1024A00081E990E00E94800F84E0B801A7010E94BA
:1024B000FB0C88EC91E00E94800F1F910F91FF9020
:1024C000EF900895EF92FF920F931F937B018C0181
:1024D0000E94E40F83EA91E00E94800F0E949A0F0D
:1024E00081E990E00E94800F84E0B801A7010E947A
:1024F000FB0C8DED91E00E94800F1F910F91FF90DA
:10250000EF900895EF92FF920F931F937B018C0140
:102510000E94E40F88EB91E00E94800F0E949A0FC6
:1025200081E990E00E94800F84E0B801A7010E9439
:10253000FB0C85E990E00E94800F1F910F91FF90A6
:10254000EF900895EF92FF920F931F937B018C0100
:102550000E94E40F8DEC91E00E94800F0E949A0F80
:1025600081E990E00E94800F84E0B801A7010E94F9
:10257000FB0C85E990E00E94800F1F910F91FF9066
:10258000EF900895379A359886B1887F866086B92E
:1025900087B18F73806487B93D98339A1092FA039C
:1025A00078941ABA1BBA089533983798089596B15B
:1025B000987F982B96B9089597B18295880F880FC8
:1025C000807C9F73982B97B9089597B18F71907EF7
:1025D000892B87B90895349A369A089586B1807404
:1025E00008951092FA0397B18F71907E892B87B965
:1025F000349A369A3699FECF24B145B1942F80E0B3
:1026000030E0282B392BC90108950E94F1129695CC
:1026100087959695879508951F920F920FB60F9202
:1026200011248F938FEF8093FA038F910F900FBE39
:102630000F901F90189508956F927F928F929F929E
:10264000AF92BF92CF92DF92EF92FF920F931F93C0
:10265000CF93DF93EC01E880F9800A811B81C801E8
:10266000B70120E030E040E05FE30E94DD1C8823FA
:102670004CF520E030E040E050E02C8B3D8B4E8B61
:102680005F8B2093C2033093C3034093C4035093E2
:10269000C5038091D5039091D603A091D703B09143
:1026A000D8038093C6039093C703A093C803B09345
:1026B000C903288739874A875B8780E090E00E94BA
:1026C000CD0838C18091D5039091D603A091D7034E
:1026D000B091D8032091C6033091C7034091C8033D
:1026E0005091C90382179307A407B50709F422C1C3
:1026F0008091D5039091D603A091D703B091D803D0
:1027000082179307A407B50780F48091D5039091B1
:10271000D603A091D703B091D8038093C6039093BA
:10272000C703A093C803B093C9036091D503709108
:10273000D6038091D7039091D8032091C60330919E
:10274000C7034091C8035091C903621B730B840BEC
:10275000950B0E94BF1D3B014C016C817D818E81D8
:102760009F81A80197010E94191A5B016C01A401C5
:1027700093010E94771A2C893D894E895F890E94B6
:102780004A1A9B01AC016C8B7D8B8E8B9F8BE888EA
:10279000F9880A891B89C801B7010E94771A20E0CD
:1027A00030E048E452E40E947D1C181664F460E0B6
:1027B00070E088E492E4A80197010E94711B6C8B81
:1027C0007D8B8E8B9F8BE888F9880A891B89C801CD
:1027D000B7012C893D894E895F890E94771A20E0D4
:1027E00030E048E452EC0E94DD1C882364F460E091
:1027F00070E088E492ECA80197010E94711B6C8B39
:102800007D8B8E8B9F8BC601B5012C853D854E85BA
:102810005F850E94771A7B018C01688979898A8992
:102820009B892C893D894E895F890E94771A9B017B
:10283000AC01C801B7010E944A1A7B018C01C60194
:10284000B5012091C2033091C3034091C40350915C
:10285000C5030E94191AA40193010E94711B288DBF
:10286000398D4A8D5B8D0E94771A9B01AC01C8019E
:10287000B7010E944A1A20E030E048E452E40E9486
:102880004A1A7B018C0120E030E040E050E00E94D9
:10289000DD1C88235CF40F2EF0E0EF2EF0E0FF2E1D
:1028A000F0E00F2FF0E01F2FF02D14C0C801B7018A
:1028B00020E030E048EC52E40E947D1C181654F4ED
:1028C0000F2EF0E0EF2EF0E0FF2EF8EC0F2FF2E4E9
:1028D0001F2FF02DE886F9860A871B87C801B701EC
:1028E00020E030E048EC52E40E94711B20E038ED1B
:1028F00046E556E40E94771A0E94A118DC01CB013C
:102900000E94CD088091D5039091D603A091D70362
:10291000B091D8038093C6039093C703A093C803D4
:10292000B093C903A092C203B092C303C092C40380
:10293000D092C503DF91CF911F910F91FF90EF903F
:10294000DF90CF90BF90AF909F908F907F906F90CF
:102950000895EF92FF920F931F938C0180E00E94E5
:10296000E51280E00E94F112A0E0B0E0BC01CD01D0
:102970000E94BF1D20E030E040E85AE30E94771A31
:1029800020E030E040EA50E40E94771A26EC3CED6B
:1029900045E25FE30E94771A2AE736E34BE55FE3FF
:1029A0000E94191A2FE135E843E651E40E94771A94
:1029B000F80160837183828393832481358146810A
:1029C00057810E94191A7B018C0120E030E040E819
:1029D0005FE30E947D1C18169CF4C801B70120E03B
:1029E00030E040E050E40E94DD1C88232CF488B3E2
:1029F000866088BBC09816C0C09A88B3897F11C012
:102A0000C801B70120E030E040E85FEB0E94DD1C28
:102A1000882324F4C29A88B38C7F03C0C19A88B3F8
:102A20008A7F88BB1F910F91FF90EF900895EF92DE
:102A3000FF920F931F93DF93CF9300D000D0CDB7B9
:102A4000DEB78C017E010894E11CF11CC70164E033
:102A500070E044E050E00E94B92089819A81AB8106
:102A6000BC81F80184839583A683B783C70168E09E
:102A700070E044E050E00E94B92089819A81AB81E6
:102A8000BC81F80184879587A687B787C7016CE06A
:102A900070E044E050E00E94B92089819A81AB81C6
:102AA000BC81F801808B918BA28BB38B80E090E08E
:102AB000A0E0B0E0848B958BA68BB78BC70160E15B
:102AC00070E044E050E00E94B92089819A81AB8196
:102AD000BC81F801808F918FA28FB38FC8010E94B3
:102AE000A9140F900F900F900F90CF91DF911F912D
:102AF0000F91FF90EF9008954F925F926F927F92A7
:102B00008F929F92AF92BF92CF92DF92EF92FF92FD
:102B10000F931F932C0182E00E94E51282E00E9435
:102B2000F1127C0183E00E94E51283E00E94F11221
:102B30005C0184E00E94E51284E00E94F1123C01F5
:102B400000E010E0C801B7010E94BF1D20E030E0A6
:102B500040E85AE30E94771A20E030E040EA50E46F
:102B60000E94771A2AE939E949E15FE30E94711B63
:102B700020E030E040E350E40E94191AF201608343
:102B8000718382839383CC24DD24C601B5010E9426
:102B9000BF1D20E030E040E85AE30E94771A20E0B1
:102BA00030E040EA50E40E94771A2AE939E949E125
:102BB0005FE30E94711B20E030E040E350E40E949C
:102BC000191AF20164837583868397838824992474
:102BD000C401B3010E94BF1D20E030E040E85AE389
:102BE0000E94771A20E030E040EA50E40E94771A11
:102BF0002AE939E949E15FE30E94711B20E030E0F6
:102C000040E350E40E94191AF201608771878287BD
:102C100093871F910F91FF90EF90DF90CF90BF901F
:102C2000AF909F908F907F906F905F904F9008959E
:102C300008956F927F928F929F92AF92BF92CF92A0
:102C4000DF92EF92FF920F931F93CF93DF93EC01EC
:102C50006C817D818E819F81288539854A855B8540
:102C60000E94DD1C88234CF520E030E040E050E07D
:102C70002C8F3D8F4E8F5F8F2093CA033093CB03F1
:102C80004093CC035093CD038091D5039091D6030C
:102C9000A091D703B091D8038093CE039093CF0334
:102CA000A093D003B093D103288B398B4A8B5B8BD5
:102CB00080E090E00E94D0083AC18091D5039091C5
:102CC000D603A091D703B091D8032091CE033091C1
:102CD000CF034091D0035091D10382179307A407EB
:102CE000B50709F424C18091D5039091D603A09132
:102CF000D703B091D80382179307A407B50780F4D0
:102D00008091D5039091D603A091D703B091D803B9
:102D10008093CE039093CF03A093D003B093D103BD
:102D20006091D5037091D6038091D7039091D80319
:102D30002091CE033091CF034091D0035091D10325
:102D4000621B730B840B950B0E94BF1D3B014C0152
:102D50006C857D858E859F85288139814A815B813F
:102D60000E94191A5B016C01A40193010E94771A59
:102D70002C8D3D8D4E8D5F8D0E944A1A9B01AC01BA
:102D80006C8F7D8F8E8F9F8FE88CF98C0A8D1B8DB9
:102D9000C801B7010E94771A20E030E048E452E40D
:102DA0000E947D1C181664F460E070E088E492E4F0
:102DB000A80197010E94711B6C8F7D8F8E8F9F8F52
:102DC000E88CF98C0A8D1B8DC801B7012C8D3D8DC7
:102DD0004E8D5F8D0E94771A20E030E048E452EC7F
:102DE0000E94DD1C882364F460E070E088E492ECCB
:102DF000A80197010E94711B6C8F7D8F8E8F9F8F12
:102E0000C601B5012C893D894E895F890E94771AD8
:102E10007B018C01688D798D8A8D9B8D2C8D3D8DEC
:102E20004E8D5F8D0E94771A9B01AC01C801B701DE
:102E30000E944A1A7B018C01C601B5012091CA0388
:102E40003091CB034091CC035091CD030E94191ACD
:102E5000A40193010E94711B28A139A14AA15BA181
:102E60000E94771A9B01AC01C801B7010E944A1A5F
:102E700020E030E048E452E40E944A1A7B018C01D1
:102E800020E030E040E050E00E94DD1C88235CF44C
:102E90000F2EF0E0EF2EF0E0FF2EF0E00F2FF0E02D
:102EA0001F2FF02D14C0C801B70120E030E048EC1E
:102EB00052E40E947D1C181654F40F2EF0E0EF2E01
:102EC000F0E0FF2EF8EC0F2FF2E41F2FF02DE88A30
:102ED000F98A0A8B1B8BC801B70120E030E048EC6F
:102EE00052E40E94711B20E038ED46E556E40E9452
:102EF000771A0E94A118DC01CB010E94D0088091B2
:102F0000D5039091D603A091D703B091D8038093B5
:102F1000CE039093CF03A093D003B093D103A0929C
:102F2000CA03B092CB03C092CC03D092CD03DF9101
:102F3000CF911F910F91FF90EF90DF90CF90BF90B6
:102F4000AF909F908F907F906F9008958F929F92F7
:102F5000AF92BF92CF92DF92EF92FF920F931F93A7
:102F60004C0181E00E94E51281E00E94F112A0E094
:102F7000B0E0BC01CD010E94BF1D20E030E040E880
:102F80005AE30E94771A20E030E040EA50E40E94C1
:102F9000771A5B016C0120E030E040E05EE30E94C4
:102FA000191A20E030E048E454EC0E94771A7B01C3
:102FB0008C01C601B50120E030E040EA50E40E94F7
:102FC000191A9B01AC01C801B7010E94711BF401E1
:102FD00060837183828393832485358546855785F5
:102FE0000E94191A7B018C0120E030E040E251E49C
:102FF0000E947D1C18169CF4C801B70120E030E047
:1030000040EA51E40E94DD1C88232CF488B38063DD
:1030100088BBC39816C0C39A88B38F7C11C0C801FF
:10302000B70120E030E040EA51EC0E94DD1C88232B
:1030300024F4C59A88B3877E03C0C49A88B3877D79
:1030400088BB1F910F91FF90EF90DF90CF90BF90C2
:10305000AF909F908F900895EF92FF920F931F93E0
:10306000DF93CF9300D000D0CDB7DEB78C017E01C7
:103070000894E11CF11CC70168E170E044E050E0F5
:103080000E94B92089819A81AB81BC81F801808737
:103090009187A287B387C70164E170E044E050E004
:1030A0000E94B92089819A81AB81BC81F801848713
:1030B0009587A687B787C7016CE170E044E050E0D0
:1030C0000E94B92089819A81AB81BC81F801848BEF
:1030D000958BA68BB78BC70160E270E044E050E0AF
:1030E0000E94B92089819A81AB81BC81F801808FCF
:1030F000918FA28FB38F80E090E0A0E0B0E0848F4A
:10310000958FA68FB78FC70164E270E044E050E06E
:103110000E94B92089819A81AB81BC81F80180A38A
:1031200091A3A2A3B3A3C8010E94A6170F900F906A
:103130000F900F90CF91DF911F910F91FF90EF9023
:103140000895EF92FF920F931F937B018C0120E073
:1031500030E040E05FE40E94AD1C88238CF0C801A1
:10316000B70120E030E040E05FE40E94191A0E94BD
:103170006B1D9B01AC01205030404040504806C0C0
:10318000C801B7010E946B1D9B01AC01B901CA01C6
:103190001F910F91FF90EF900895A0E0B0E0E3ED54
:1031A000F8E10C948220DC012B01FA019C91923011
:1031B00008F439C1EB018881823008F433C19430BE
:1031C00069F4843009F02FC111969C91119789817F
:1031D000981709F428C1A3EEB1E025C1843009F4A1
:1031E00021C18230A9F4923009F01DC19A01AD01CC
:1031F00088E0EA010990AE01E90109929E0181503F
:10320000C1F7E201898111969C918923818308C1CC
:10321000923009F407C112962D903C901397EB0160
:103220008A819B811496AD90BD90CD90DC901797CC
:10323000EC80FD800E811F819101281B390BB901A3
:1032400037FF04C066277727621B730B6032710556
:103250000CF061C0121613066CF537014801062EFA
:1032600004C096948794779467940A94D2F721E0E7
:1032700030E040E050E004C0220F331F441F551FD0
:103280006A95D2F721503040404050402E213F21D6
:1032900040235123211531054105510521F021E03D
:1032A00030E040E050E079018A01E628F72808295B
:1032B00019293CC0232BD1F1260E371E35014601BA
:1032C000062E04C096948794779467940A94D2F754
:1032D00021E030E040E050E004C0220F331F441FE3
:1032E000551F6A95D2F721503040404050402A2166
:1032F0003B214C215D21211531054105510521F06E
:1033000021E030E040E050E059016A01A628B728EA
:10331000C828D9280BC0821593052CF01C01AA24BB
:10332000BB24650103C0EE24FF24870111969C9104
:10333000D20111968C91981709F445C0992339F060
:10334000A80197012A193B094C095D0906C0A6018D
:1033500095012E193F09400B510B57FD08C01182F2
:103360003382228224833583468357831DC081E0C4
:1033700081833382228288279927DC01821B930B69
:10338000A40BB50B84839583A683B7830DC0220F4E
:10339000331F441F551F24833583468357838281FF
:1033A000938101979383828324813581468157815C
:1033B000DA01C9010197A109B1098F5F9F4FAF4F92
:1033C000BF4328F30BC0918333822282EA0CFB1C9B
:1033D0000C1D1D1DE482F5820683178383E0808324
:1033E000248135814681578157FF1AC0C901AA2718
:1033F00097FDA095BA2F81709070A070B07056950F
:10340000479537952795822B932BA42BB52B848337
:103410009583A683B7838281938101969383828368
:10342000DF0101C0D201CD01CDB7DEB7E2E10C94DE
:103430009E20A0E2B0E0EFE1FAE10C948E206983D7
:103440007A838B839C832D833E834F835887E9E067
:10345000EE2EF12CEC0EFD1ECE010196B7010E945E
:103460005C1F8E010F5E1F4FCE010596B8010E94B2
:103470005C1F8A8991E089278A8BC701B801AE0158
:10348000475E5F4F0E94CD180E94871EA096E6E01F
:103490000C94AA20A0E2B0E0E0E5FAE10C948E20C2
:1034A00069837A838B839C832D833E834F835887E4
:1034B000F9E0EF2EF12CEC0EFD1ECE010196B701C6
:1034C0000E945C1F8E010F5E1F4FCE010596B80152
:1034D0000E945C1FC701B801AE01475E5F4F0E94AA
:1034E000CD180E94871EA096E6E00C94AA20A0E2C8
:1034F000B0E0EDE7FAE10C94822069837A838B8354
:103500009C832D833E834F835887CE010196BE0155
:10351000675F7F4F0E945C1FCE010596BE016F5E04
:103520007F4F0E945C1F9985923088F08989823094
:10353000C8F0943019F4823051F404C0843029F476
:10354000923081F483EE91E0C6C0923049F420E0DD
:103550009A858A89981321E02A87CE010996BBC0F3
:10356000823049F420E09A858A89981321E02A8BD9
:10357000CE014196B0C02D843E844F8458886D881A
:103580007E888F88988CEE24FF248701AA24BB2490
:10359000650140E050E060E070E0E0E0F0E0C10193
:1035A00081709070892BE9F0E60CF71C081D191D3D
:1035B0009A01AB012A0D3B1D4C1D5D1D80E090E082
:1035C000A0E0B0E0E614F7040805190520F481E056
:1035D00090E0A0E0B0E0BA01A901480F591F6A1FAE
:1035E0007B1FAA0CBB1CCC1CDD1C97FE08C081E015
:1035F00090E0A0E0B0E0A82AB92ACA2ADB2A3196D6
:10360000E032F10549F0660C771C881C991C569431
:10361000479437942794C3CFFA85EA892B893C894C
:103620008B859C85280F391F2E5F3F4F17C0CA011D
:1036300081709070892B61F016950795F794E79447
:1036400080E090E0A0E0B0E8E82AF92A0A2B1B2BE2
:1036500076956795579547952F5F3F4F77FDE7CF55
:103660000CC0440F551F661F771F17FD4160EE0CFD
:10367000FF1C001F111F21503040403090E05907BF
:1036800090E0690790E4790760F32B8F3C8FDB01B2
:10369000CA018F779070A070B07080349105A10539
:1036A000B10561F447FD0AC0E114F10401051105FB
:1036B00029F0405C5F4F6F4F7F4F40781A8EFE17A6
:1036C00011F081E08A8F4D8F5E8F6F8F78A383E03A
:1036D000898FCE0149960E94871EA096E2E10C9444
:1036E0009E20A8E1B0E0E7E7FBE10C948A20698323
:1036F0007A838B839C832D833E834F835887B9E0E5
:10370000EB2EF12CEC0EFD1ECE010196B7010E94AE
:103710005C1F8E010F5E1F4FCE010596B8010E94FF
:103720005C1F2985223008F47EC03989323010F4BC
:10373000B8017CC08A859A8989278A87243011F04C
:10374000223031F4231709F06EC063EE71E06EC0D1
:10375000343039F41D861E861F86188A1C861B8607
:1037600004C0323021F484E08987B7015FC02B8523
:103770003C858B899C89281B390B3C872B87ED84E2
:10378000FE840F851889AD88BE88CF88D88CEA144E
:10379000FB040C051D0540F4EE0CFF1C001F111F5F
:1037A000215030403C872B8720E030E040E050E063
:1037B00080E090E0A0E0B0E460E070E0EA14FB0498
:1037C0000C051D0540F0282B392B4A2B5B2BEA18E2
:1037D000FB080C091D09B695A79597958795EE0CE2
:1037E000FF1C001F111F6F5F7F4F6F31710531F795
:1037F000DA01C9018F779070A070B07080349105A4
:10380000A105B10561F427FD0AC0E114F104010529
:10381000110529F0205C3F4F4F4F5F4F20782D87D7
:103820003E874F87588BBE01675F7F4FCB010E9459
:10383000871E6896EAE00C94A620A8E1B0E0E3E2D7
:10384000FCE10C948E2069837A838B839C832D8387
:103850003E834F83588789E0E82EF12CEC0EFD1E45
:10386000CE010196B7010E945C1F8E010F5E1F4FB3
:10387000CE010596B8010E945C1F8985823040F018
:103880008989823028F0C701B8010E94D41F01C085
:1038900081E06896E6E00C94AA20A8E1B0E0E3E5B8
:1038A000FCE10C948E2069837A838B839C832D8327
:1038B0003E834F83588789E0E82EF12CEC0EFD1EE5
:1038C000CE010196B7010E945C1F8E010F5E1F4F53
:1038D000CE010596B8010E945C1F8985823040F0B8
:1038E0008989823028F0C701B8010E94D41F01C025
:1038F00081E06896E6E00C94AA20A8E1B0E0E3E855
:10390000FCE10C948E2069837A838B839C832D83C6
:103910003E834F83588789E0E82EF12CEC0EFD1E84
:10392000CE010196B7010E945C1F8E010F5E1F4FF2
:10393000CE010596B8010E945C1F8985823040F057
:103940008989823028F0C701B8010E94D41F01C0C4
:103950008FEF6896E6E00C94AA20A8E1B0E0E3EBD4
:10396000FCE10C948E2069837A838B839C832D8366
:103970003E834F83588789E0E82EF12CEC0EFD1E24
:10398000CE010196B7010E945C1F8E010F5E1F4F92
:10399000CE010596B8010E945C1F8985823040F0F7
:1039A0008989823028F0C701B8010E94D41F01C064
:1039B0008FEF6896E6E00C94AA20A8E1B0E0E3EE71
:1039C000FCE10C948E2069837A838B839C832D8306
:1039D0003E834F83588789E0E82EF12CEC0EFD1EC4
:1039E000CE010196B7010E945C1F8E010F5E1F4F32
:1039F000CE010596B8010E945C1F8985823040F097
:103A00008989823028F0C701B8010E94D41F01C003
:103A100081E06896E6E00C94AA20A8E0B0E0E3E13B
:103A2000FDE10C948B209B01AC0183E08983DA01DA
:103A3000C9018827B7FD83959927AA27BB27B82EE8
:103A4000211531054105510519F482E089833AC0F9
:103A50008823A9F0203080E0380780E0480780E81C
:103A6000580729F460E070E080E09FEC30C0EE245D
:103A7000FF248701E21AF30A040B150B02C0790137
:103A80008A018EE1C82ED12CDC82CB82ED82FE82AF
:103A90000F831887C801B7010E94381E01971816B6
:103AA000190684F4082E04C0EE0CFF1C001F111F21
:103AB0000A94D2F7ED82FE820F831887C81AD90ABA
:103AC000DC82CB82BA82CE0101960E94871E2896A4
:103AD000E9E00C94A720ACE0B0E0E1E7FDE10C9454
:103AE000922069837A838B839C83CE010196BE01E9
:103AF0006B5F7F4F0E945C1F8D81823061F182304D
:103B000050F1843021F48E81882351F12EC02F8111
:103B1000388537FD20C06E812F3131051CF06623BA
:103B2000F9F023C08EE190E0821B930B29853A8542
:103B30004B855C8504C056954795379527958A95A2
:103B4000D2F76623B1F050954095309521953F4FBF
:103B50004F4F5F4F0EC020E030E040E050E009C022
:103B60002FEF3FEF4FEF5FE704C020E030E040E091
:103B700050E8B901CA012C96E2E00C94AE20A8E00E
:103B8000B0E0E5ECFDE10C948A207B018C0161152D
:103B900071058105910519F482E0898360C083E095
:103BA00089838EE1C82ED12CDC82CB82ED82FE820D
:103BB0000F831887C801B7010E94381EFC01319796
:103BC000F7FF3BC0222733272E1B3F0B570168010D
:103BD000022E04C0D694C794B794A7940A94D2F73F
:103BE00040E050E060E070E081E090E0A0E0B0E014
:103BF00004C0880F991FAA1FBB1F2A95D2F70197EF
:103C0000A109B1098E219F21A023B1230097A1050D
:103C1000B10521F041E050E060E070E04A295B2905
:103C20006C297D294D835E836F8378878EE190E0D8
:103C30008E1B9F0B9C838B8312C0309781F00E2EBE
:103C400004C0EE0CFF1C001F111F0A94D2F7ED8276
:103C5000FE820F831887CE1ADF0ADC82CB821A829B
:103C6000CE0101960E94871E2896EAE00C94A620B9
:103C7000EF92FF920F931F937B018C0180E0E81677
:103C800080E0F80681E0080780E0180788F48FEFED
:103C9000E816F1040105110531F028F088E090E004
:103CA000A0E0B0E017C080E090E0A0E0B0E012C07B
:103CB00080E0E81680E0F80680E0080781E0180759
:103CC00028F088E190E0A0E0B0E004C080E190E05E
:103CD000A0E0B0E020E230E040E050E0281B390BEB
:103CE0004A0B5B0B04C016950795F794E7948A95E9
:103CF000D2F7F701E551FE4F8081281B31094109B8
:103D00005109C9011F910F91FF90EF900895DF9223
:103D1000EF92FF920F931F93FC01E480F5800681E0
:103D20001781D1808081823048F480E090E0A0E16A
:103D3000B0E0E82AF92A0A2B1B2BA5C0843009F42D
:103D40009FC0823021F4EE24FF24870105C0E114D6
:103D5000F1040105110519F4E0E0F0E096C062817C
:103D600073819FEF623879070CF05BC022E83FEF68
:103D7000261B370B2A3131052CF020E030E040E0E3
:103D800050E02AC0B801A701022E04C076956795BD
:103D9000579547950A94D2F781E090E0A0E0B0E013
:103DA00004C0880F991FAA1FBB1F2A95D2F701973D
:103DB000A109B1098E219F21A023B1230097A1055C
:103DC000B10521F081E090E0A0E0B0E09A01AB0104
:103DD000282B392B4A2B5B2BDA01C9018F77907086
:103DE000A070B07080349105A105B10539F427FFAA
:103DF00009C0205C3F4F4F4F5F4F04C0215C3F4FD5
:103E00004F4F5F4FE0E0F0E02030A0E03A07A0E045
:103E10004A07A0E45A0710F0E1E0F0E079018A01D6
:103E200027C06038710564F5FB01E158FF4FD801E8
:103E3000C7018F779070A070B07080349105A10594
:103E4000B10539F4E7FE0DC080E490E0A0E0B0E0F9
:103E500004C08FE390E0A0E0B0E0E80EF91E0A1F76
:103E60001B1F17FF05C016950795F794E794319629
:103E700087E016950795F794E7948A95D1F705C0E2
:103E8000EE24FF248701EFEFF0E06E2F67956627A1
:103E90006795902F9F77D794DD24D7948E2F8695A2
:103EA000492F462B582F5D29B701CA011F910F9149
:103EB000FF90EF90DF900895FC01DB01408151817C
:103EC0002281622F6F7770E0221F2227221F9381A9
:103ED000892F880F822B282F30E0991F9927991F4F
:103EE00011969C93119721153105A9F5411551059E
:103EF0006105710511F482E037C082E89FEF1396E7
:103F00009C938E9312979A01AB0167E0220F331FA7
:103F1000441F551F6A95D1F783E08C930DC0220F83
:103F2000331F441F551F12968D919C911397019733
:103F300013969C938E931297203080E0380780E090
:103F4000480780E4580758F314962D933D934D93FA
:103F50005C93179708952F3F310579F4411551056A
:103F60006105710519F484E08C93089564FF03C022
:103F700081E08C9312C01C9210C02F5730401396D2
:103F80003C932E93129783E08C9387E0440F551F48
:103F9000661F771F8A95D1F7706414964D935D93D1
:103FA0006D937C93179708951F93DC01FB019C91FF
:103FB000923008F447C08081823008F443C09430C6
:103FC00051F411961C91843099F58181682F70E02D
:103FD000611B71093FC0843021F0923031F482308E
:103FE000B9F18181882389F12DC011961C91119717
:103FF0008230F1F081811817D9F412962D913C91FD
:104000001397828193818217930794F028173907B9
:10401000BCF014968D919D910D90BC91A02D2481A2
:10402000358146815781281739074A075B0718F4FD
:10403000112341F00AC082179307A407B50740F483
:10404000112319F061E070E005C06FEF7FEF02C04F
:1040500060E070E0CB011F910895629FD001739FD3
:10406000F001829FE00DF11D649FE00DF11D929F14
:10407000F00D839FF00D749FF00D659FF00D992753
:10408000729FB00DE11DF91F639FB00DE11DF91F77
:10409000BD01CF0111240895AA1BBB1B51E107C02C
:1040A000AA1FBB1FA617B70710F0A61BB70B881FC8
:1040B000991F5A95A9F780959095BC01CD01089557
:1040C000A1E21A2EAA1BBB1BFD010DC0AA1FBB1F1C
:1040D000EE1FFF1FA217B307E407F50720F0A21B8E
:1040E000B30BE40BF50B661F771F881F991F1A94FB
:1040F00069F760957095809590959B01AC01BD0125
:10410000CF0108952F923F924F925F926F927F92CC
:104110008F929F92AF92BF92CF92DF92EF92FF92D7
:104120000F931F93CF93DF93CDB7DEB7CA1BDB0B83
:104130000FB6F894DEBF0FBECDBF09942A88398828
:1041400048885F846E847D848C849B84AA84B9842F
:10415000C884DF80EE80FD800C811B81AA81B9813B
:10416000CE0FD11D0FB6F894DEBF0FBECDBFED014F
:104170000895DC01CB01FC01E199FECF06C0FFBB35
:10418000EEBBE09A31960DB20D9241505040B8F717
:104190000895DC01CB0103C02D910E94D420415031
:1041A0005040D0F70895262FE199FECF9FBB8EBBDC
:1041B0002DBB0FB6F894E29AE19A0FBE01960895CE
:0441C000F894FFCFA1
:1041C40020426F6F737420447574793A0020426FF3
:1041D4006F737420496E74656772616C3A000000F5
:1041E400803F4465736972656420426F6F73743AEB
:1041F4000020202000202050536900446573697218
:104204006564204B693A00446573697265642050A3
:10421400726573737572653A004465736972656497
:10422400206F6E20426F6F73743A002020536574C0
:104234002044657369726564002020202020426F49
:104244006F7374002053657420426F6F737420473A
:1042540061696E73005365742044657369726564A3
:1042640020572F4D002020507265737375726500BE
:104274002053657420572F4D206F6E20002020207E
:1042840020426F6F7374002000480065006C006F5B
:104294000021004400420057004D004300760031E5
:1042A400002E0030002020426F6F73742047756128
:1042B40067650020572F4D20436F6E74726F6C6CCE
:1042C40065720020416363656C65726F6D6574652A
:1042D400720020466F727761726420416363656C7B
:1042E4003A00204C61746572616C20416363656CB3
:1042F4003A00202020496E636C696E653A002047BD
:1043040027730020576174657220566F6C756D6554
:104314003A00206363504D005761746572205072F7
:104324006573737572653A002042415200426F6FA3
:1043340073742050726573737572653A0020204758
:104344007068000000000000000000000102020389
:104354000303030404040404040404050505050517
:1043640005050505050505050505050606060606F4
:1043740006060606060606060606060606060606D9
:1043840006060606060606060606060707070707C4
:1043940007070707070707070707070707070707A9
:1043A4000707070707070707070707070707070799
:1043B4000707070707070707070707070707070789
:1043C4000707070707070707070707080808080874
:1043D4000808080808080808080808080808080859
:1043E4000808080808080808080808080808080849
:1043F4000808080808080808080808080808080839
:104404000808080808080808080808080808080828
:104414000808080808080808080808080808080818
:104424000808080808080808080808080808080808
:1044340008080808080808080808080808080808F8
:0C44440008080808080808080808080014
:00000001FF
